S02B00002F686F6D652F6672616E6369735F6D636D756C6C616E2F446F63756D656E74732F436F757273657737
S1130000000600201D050000450500004505000010
S113001000000000000000000000000000000000DC
S11300200000000000000000000000004505000082
S11300300000000000000000450500004505000028
S11300404505000045050000450500004505000084
S1130050450500004505000045050000DD0F0000D2
S1130060932B0000450500009D2B00004505000072
S1130070A72B0000450500004505000045050000CC
S11300804505000045050000450500004505000044
S1130090B50F0000CD0F0000450500004505000028
S11300A04505000045050000450500004505000024
S11300B04505000045050000ED0F00004505000062
S1130400FFFFFFFFFFFFFFFFFFFFFFFFFE3DFFFFBB
S11304100448054B10B5834203D0044B002B00D095
S1130420984710BD04FFFF1F04FFFF1F00000000DA
S113043006480749091A8B10C90FC91810B5491085
S113044003D0044B002B00D0984710BD04FFFF1FBE
S113045004FFFF1F0000000010B5074C2378002B99
S113046009D1FFF7D5FF054B002B02D0044800E06B
S113047000BF0123237010BD04FFFF1F0000000014
S11304809C660000054B10B5002B03D004490548B9
S113049000E000BFFFF7CCFF10BDC0460000000025
S11304A008FFFF1F9C660000402292029A1A92469F
S11304B07047C046154B002B00D1114B9D46FFF7EA
S11304C0F3FF00218B460F461148124A121A00F01E
S11304D003F90C4B002B00D098470B4B002B00D09A
S11304E098470020002104000D000B4800F02EF86E
S11304F000F06AF82000290001F016F800F03AF83C
S113050000000800000000000000000000060020B9
S113051004FFFF1F24020020A105000072B6064854
S11305200649074A02600A6002F042FB02F082FBBD
S113053062B6FFF7BFFF000080E100E080E200E068
S1130540FFFFFFFF004800474505000010B501000C
S113055000230022002000F01DFA10BD10B50A008F
S1130560002100F0B9F810BD014B18687047C0466F
S113057000FEFF1F084B10B50400002B02D0002121
S113058000F070FA054B1868836A002B00D0984776
S1130590200000F073FCC046650A0000504E0000C5
S11305A070B5074D074C641BA41005D0013CA30093
S11305B0EB589847002CF9D106F076F870BDC04688
S11305C0C0660000C466000070B50C4D0C4E761B6E
S11305D0B61005D0002408CD01349847A642FAD1BC
S11305E006F05CF8074D084E761BB61005D00024C3
S11305F008CD01349847A642FAD170BDBC6600000C
S1130600BC660000BC660000C066000010B5034B69
S11306100100186800F014F910BDC04600FEFF1F69
S113062010B5034B0100186800F0AAF810BDC046CD
S113063000FEFF1FF0B5C64600B50F2A41D90327B7
S11306400D003E0005430C0003002E402F423DD117
S11306501500103D2D09A8462D01AC468444276899
S11306601D001F6067685F60A7689F60E7681034BB
S1130670DF6010336545F2D145460F230C24013564
S11306802D01491913404519144222D08C59AC51FB
S113069004369C1B032CF9D8043B9B0801339B00B4
S11306A0ED18C91803231A40561E002A06D0002349
S11306B0CC5C1A00EC5401339642F9D180BCB846A4
S11306C0F0BD0500561E002AF1D1F7E70500561EBD
S11306D0EDE71A00F6E7C046F0B50500830749D0F8
S11306E0541E002A45D003000326CAB202E0013595
S11306F0013C3ED301332A703342F8D1032C30D964
S1130700FF220A40150215432A0415430F2C34D93D
S11307102700103F3F093E01B4461E001A00103660
S11307206644156055609560D5601032B242F8D1C8
S113073001373F01DB190F270C22274022403C00E0
S1130740002A0ED03E1FB608B400A4461A001C1D91
S1130750644420C2A242FCD103240136B6009B1992
S11307603C40002C05D0C9B21C19197001339C42BD
S1130770FBD1F0BD03001400C0E72700E2E7C04648
S113078070B50500002915D00C1F2368002B23DB4E
S1130790280000F0E5F9294A1368002B05D0A3428C
S11307A00BD92168601883422DD06360280014603F
S11307B000F0D8F970BDA34210D81A005B68002B72
S11307C0F9D1106811188C4219D030D36360546089
S11307D0280000F0C7F9EDE7E418D9E711685018CC
S11307E0A04217D023D8216860188342EED118683C
S11307F05B6884466144216063605460E8E7236871
S113080018181060E4E718685B6884466144216046
S11308106360CBE720680918501811608342D7D170
S113082018685B688446614411605360D0E70C2308
S113083028002B6000F096F9BCE7C04620FFFF1F9C
S1130840F8B50323CD1C9D43083506000C2D27D293
S11308500C25A94226D8300000F082F9284F3A68C6
S1130860002A27D0140004E063682200002B21D062
S11308701C0023685B1BF7D40B2B17D863689442C6
S113088035D05360300000F06DF9200007220B30A2
S1130890231D9043C21A984207D01B1AA35004E0A8
S11308A0002DD6DA0C2300203360F8BD2360E41851
S11308B02560E7E77B68002B1BD02900300000F09F
S11308C021F8431C0CD00323C41C9C43A04205D034
S11308D0211A300000F016F8431C01D02560D1E73E
S11308E00C233000336000F03DF90020DDE73B606D
S11308F0C8E70021300000F005F87860DDE7C04665
S113090020FFFF1F002370B5064D040008002B6074
S113091000F0B6FA431C00D070BD2B68002BFBD04E
S11309202360F9E7B8FFFF1F03000A7801311A704A
S11309300133002AF9D1704710B583070AD00300A8
S1130940032102E001330B4205D01A78002AF9D1C1
S1130950181A10BD030019680C4A0D4C8A188A43F2
S113096022420FD15968094A04338A188A43224221
S113097008D15968054A04338A188A432242F1D0BF
S113098000E001331A78002AFBD1E1E7FFFEFEFE06
S113099080808080F0B54F464646D646C0B598461E
S11309A02C4B06001D680F00914682B0002D27D005
S11309B06C681F2C4ADC002E16D08823E8589A460F
S11309C000282FD07833C1584A46A300C3181A60B0
S11309D00122A2401143914680225200815080217D
S11309E042465A50022E16D00020631C0234A40042
S11309F06B60675102B0E0BCBA46B146A846F0BD90
S1130A00154D1D60154B002BD2D01B680193882314
S1130A10019AEA50CCE7822349465B00C25811434D
S1130A20C150E1E70E4B002B10D084204000FFF7AB
S1130A30EDFD00280AD080220023520083500432A6
S1130A408350534600216C68E850BDE701204042C2
S1130A50D0E7C046B4FFFF1F28FFFF1F00000000BF
S1130A600D060000F0B5DE4657464E464546E0B555
S1130A703A4B85B09A461B6889469B460390002BE7
S1130A8055D05B4688229B5898465B465E68741E28
S1130A904DD443461F36B60035009F194B46803E61
S1130AA04644783DB1465D445E469B460DE0434670
S1130AB0002B02D03B685B450AD004235B429C4672
S1130AC0043F043DE144013C31D35B46002BEED1AD
S1130AD073682A68013BA3423AD000232B60002AA2
S1130AE0EBD0736801934346002B27D00123802069
S1130AF04146A34040000958029119421ED0822069
S1130B004146400009580291194223D14B460398AB
S1130B10196890477368019A934214D153461B682D
S1130B20B342CAD0D9469B465B46002BA9D105B037
S1130B30F0BCBB46B246A946A046F0BD90477368D8
S1130B40019A9342EAD053461B68D9469B46EBE789
S1130B507460C4E74B4618689047DBE7B4FFFF1F97
S1130B607047C0467047C04602B471464908490000
S1130B70095C49008E4402BC7047C04603B4714608
S1130B80490840004900095E49008E4403BC70478F
S1130B90002243088B4274D303098B425FD3030AB8
S1130BA08B4244D3030B8B4228D3030C8B420DD3CB
S1130BB0FF22090212BA030C8B4202D31212090259
S1130BC065D0030B8B4219D300E0090AC30B8B4297
S1130BD001D3CB03C01A5241830B8B4201D38B0345
S1130BE0C01A5241430B8B4201D34B03C01A5241EA
S1130BF0030B8B4201D30B03C01A5241C30A8B422D
S1130C0001D3CB02C01A5241830A8B4201D38B0217
S1130C10C01A5241430A8B4201D34B02C01A5241BB
S1130C20030A8B4201D30B02C01A5241CDD2C3092D
S1130C308B4201D3CB01C01A524183098B4201D3A9
S1130C408B01C01A524143098B4201D34B01C01A94
S1130C50524103098B4201D30B01C01A5241C3080C
S1130C608B4201D3CB00C01A524183088B4201D37B
S1130C708B00C01A524143088B4201D34B00C01A67
S1130C805241411A00D20146524110467047FFE7D3
S1130C9001B5002000F0F0F802BDC0460029F7D0ED
S1130CA076E7704703460B437FD4002243088B4208
S1130CB074D303098B425FD3030A8B4244D3030BDF
S1130CC08B4228D3030C8B420DD3FF22090212BAA4
S1130CD0030C8B4202D31212090265D0030B8B4220
S1130CE019D300E0090AC30B8B4201D3CB03C01A0A
S1130CF05241830B8B4201D38B03C01A5241430BE5
S1130D008B4201D34B03C01A5241030B8B4201D3D4
S1130D100B03C01A5241C30A8B4201D3CB02C01A3F
S1130D205241830A8B4201D38B02C01A5241430AB7
S1130D308B4201D34B02C01A5241030A8B4201D3A6
S1130D400B02C01A5241CDD2C3098B4201D3CB014D
S1130D50C01A524183098B4201D38B01C01A5241FC
S1130D6043098B4201D34B01C01A524103098B4200
S1130D7001D30B01C01A5241C3088B4201D3CB00EB
S1130D80C01A524183088B4201D38B00C01A5241CE
S1130D9043088B4201D34B00C01A5241411A00D27E
S1130DA001465241104670475DE0CA0F00D04942E7
S1130DB0031000D34042534000229C4603098B4257
S1130DC02DD3030A8B4212D3FC22890112BA030ADF
S1130DD08B420CD3890192118B4208D38901921161
S1130DE08B4204D389013AD0921100E08909C309E6
S1130DF08B4201D3CB01C01A524183098B4201D3E8
S1130E008B01C01A524143098B4201D34B01C01AD2
S1130E10524103098B4201D30B01C01A5241C3084A
S1130E208B4201D3CB00C01A524183088B4201D3B9
S1130E308B00C01A5241D9D243088B4201D34B00D4
S1130E40C01A5241411A00D20146634652415B1016
S1130E50104601D34042002B00D5494270476346F7
S1130E605B1000D3404201B5002000F005F802BD3C
S1130E700029F8D016E770477047C046FEE7C04621
S1130E800A4A0300116810B5002901D1084911600C
S1130E9010680849C3188B4206D9FFF765FB0C2379
S1130EA003600120404210BD1360FCE7BCFFFF1F3C
S1130EB028020020280200208378022098428041E2
S1130EC040427047437A0020013B012B03D90B7841
S1130ED0013001330B707047C023174A9B00136025
S1130EE0164A1360164A13600023164A1360164A02
S1130EF01360164A1360164A1360164A1360164AA2
S1130F001360164A1360164A1360164A1360164A91
S1130F101360164A1360164A1360164A1360164A81
S1130F201360164A1360164A1360164A1360164A71
S1130F301360164A136070470090145404901454BC
S1130F40089014540C901454109014541490145485
S1130F50189014541C901454209014542490145435
S1130F603090145400A0145404A0145408A0145431
S1130F700CA0145410A0145414A0145418A0145405
S1130F801CA0145428A014542CA0145434A0145499
S1130F9003003038092805D91A00613A052A02D815
S1130FA0573B180070471A00413A0020052AF9D827
S1130FB0373BF6E710B5002003F0F8FA002803D019
S1130FC00021080003F0E6FA10BD0000024A13688D
S1130FD0013313607047C04680FEFF1F10B5072120
S1130FE0014802F091FF10BD00C007400122024BEE
S1130FF052421A607047C046A090044037B50020A2
S113100002F005F9C02300240D4A9B0013600D4A29
S11310100D4D13600D4A200013600D4B2C716C7143
S1131020AC711A68FA239B0053430A492B6003F0FE
S113103009FB2900200001AA03F06AFB37BDC04662
S1131040189014541C9014546000002000A01454F0
S113105084FEFF1F3000002010B58024002003F020
S113106033FB0A4B64001C60094B07201C60094BCE
S11310701C6002F07DFB062002F07AFB200002F0E7
S113108077FB002002F0C8F810BDC0461890145435
S11310901C90145400A0145410B5002002F0C6F89B
S11310A08023054A9B001360044A0020044913600E
S11310B002F038FC10BDC0460CA0145410A0145407
S11310C00C00002010B5002002F068FC0020034B47
S11310D01860034B186002F0AEF810BD0CA0145455
S11310E010A01454014B1B887047C04674FEFF1FA8
S11310F00FB41FB50E4B1B78DCB2002B0FD107AB1E
S1131100039340232000009306990A4B03AA01F09D
S113111009FC002807DA2000074901F027FB1FBC5F
S113112008BC04B01847052001F043FEF7E7C046A9
S113113076FEFF1FC9FFFF1F7664000010B5040090
S1131140002901D0FFF7C8FE0021022000F048FF6B
S11311502100042000F044FF002802D00148FFF7DA
S1131160C7FF10BD7E4E0000F8B50E0004002648EF
S11311701500FFF7BDFF2548FFF7BAFF3200210035
S11311802348FFF7B5FF234B23481968234B244E0C
S11311901A68244B244F1B68FFF7AAFF234B244CE7
S11311A0F958244872693368FFF7A2FF21786278FE
S11311B0A3792148C9B2D2B2DBB2FFF799FF1F4B22
S11311C0217A227E1B781E48C9B2D2B2DBB2FFF765
S11311D08FFF1C4B1C4819785A781C4BC9B21B69E9
S11311E0D2B2FFF785FF1A4B1A4899781A4BC9B245
S11311F0FA587368FFF77CFF184B2A781968184867
S1131200FFF776FFF8BDC046DC4E00001C4F00001F
S11312104E4F000078FEFF1F824F000084FEFF1F28
S113122000D003408CFEFF1F007004403C100000FF
S113123000400640B94F0000EF4F00000050064048
S11312401E50000000E007404E50000000ED00E09A
S113125000D00740885000003410000080FEFF1FBB
S1131260C050000010B501F08DFA0028FBDB10BD62
S113127070B5FFF7F7FF0400FFF7F4FFFF26050042
S113128020003040FFF784FE040028003040FFF7C0
S11312907FFE24012018C0B270BD70B5FFF7E2FFD5
S11312A00600FFF7DFFF0500FFF7DCFF0400FFF790
S11312B0D9FFFF22FA23642116401540303E144022
S11312C09B00303D4D4373435A39303C4C435B19CA
S11312D010401B193038181870BD0000F0B591B0DB
S11312E01C0016AB0C91197817AB05921A7818AB41
S11312F01B7805000D931CAB1B780EA80E931DAB39
S11313001B880F1C099321231B18DB7F08931FAB39
S11313101B880F9320AB1B780A93914200D9171CAA
S1131320059BFFB2002C05D1002B05D15448FFF7D3
S1131330DFFE01E0002BF9D1280000252E00514BDF
S11313401B88FFF7D5FE099B04950293069500239D
S11313500793079B199A934200DC8FE00E9B002BA6
S113136004D001370D9BFFB29F42F0D9069B310098
S1131370F2184548FFF7BCFE322001F01AFD320096
S1131380089B04994148FFF7B3FE322001F011FD98
S113139029003F48FFF7ACFE322001F00AFD11B0EE
S11313A0F0BD039B2C22FB180B936B469B181878FB
S11313B001210C9B9847002848D1029B099A0136C9
S11313C0934204D9643B9BB202932E4B1B88002C9E
S11313D027D0E368089A9B789B1A5A425341049A8F
S11313E0D31804930A9B002B0BD0E268E368E068EF
S11313F0039980785B781278791800902548FFF774
S113140077FE1B9B002B02DD180001F0D2FC039B2E
S113141001330393039B1A9A9342C2DB079B013364
S113142096E7059B089A9B789B1A5A425341049A63
S1131430D31804930A9B002BE3D0059B16489A7893
S1131440039BD2B2F918FFF753FEDAE7022810D152
S11314500B991248FFF74CFE069B0F9A0133069333
S1131460029B9342CDD264339BB20293054B1B88FB
S1131470C7E70338434258412D18C2E70023C8E7A1
S1131480EE50000074FEFF1F685100008051000000
S1131490B15100001B5100004051000055510000A3
S11314A070B50C00160088B00CAA157806A908803F
S11314B00A4A05A805700A4D12682D684A6004AAF4
S11314C016700193009023000020029502F08CFB1B
S11314D0002800D0022008B070BDC04678FEFF1F6F
S11314E07CFEFF1FF7B56A46CB1DDB08DB00D31A71
S11314F002AF9D460C000500FFF780FD0021094B5B
S113150002AE1B682A00019300943300080003F024
S11315105BF90400FFF7A0FD002C00D00424BD46B5
S11315202000F2BD88FEFF1FF0B50025BDB029AC38
S1131530072229002000FFF7CFF8DA4A012630926B
S1131540032219AB33931BAB34931DAB369321ABFE
S1131550389323AB399325AB3A9327AB1FAF15A927
S113156028003B9330AB1A7132911893267035944E
S1131570379701F037FE300001F034FE8022CA4B69
S113158012021A6001F034FC2B002A002900280002
S1131590009601F007F9C54A33000221C44801F05E
S11315A04BFC3100300001F053FC280002F03CFFFA
S11315B0FC232DA9DB0028000B804E808E80CD807B
S11315C00D818D7202F05CFF3200290015A8FFF72F
S11315D083F85820299B08A91D93A28809180A801A
S11315E0A279023008A909180A700322063808A94A
S11315F009180A701F93A2880C38BA80A27908A926
S1131600BA7105223A701993A28809180A80A2793E
S1131610023008A909180A704421022708AA52189E
S113162017701B93A288063008A909180A80A279AA
S1131630C01908A909180A700422063808A909184B
S11316400A702193A2881C3008A909180A80A2797B
S1131650C01908A909180A70642108AA5118082297
S113166070200A702393A28808A909180A80A27915
S1131670C01908A909180A706C22092108A8801841
S113168001702593A3880C3208A880180380A379DD
S11316907A2408A8001903700A2308A8063C001934
S11316A003707C2008AB1B1818AA1D7033A83300E4
S11316B001F01CFE7F48FFF71BFD2900380000F0F5
S11316C08FFC082203009343DBB20D90AB4202D09F
S11316D07948FFF70DFD7948FFF70AFD7848FFF7D1
S11316E007FD7849784802F01BF8784C2000FFF792
S11316F0FFFCC023764A9B001360764A7648136049
S1131700764A1360FFF7F4FCFFF7E6FB2000FFF7CF
S1131710EFFCE1211D20C90000F016FD0122704BF1
S113172070481A70FFF7E4FC6F4B6F4A1C78002373
S11317306E481370FFF7DCFC6B4BE4B21C706C4C0E
S113174001F020F80500012001F033FB002D10DA30
S1131750013C002CF4D1674B15AA1888210080B2F3
S1131760FFF702FD9622644B520064481A60FFF7AB
S1131770BFFC002700F0D6FD03230F970E93002330
S1131780594A5C4C13702088390015AA80B2FFF7BF
S1131790EBFC5B48FFF7ACFC5A48FFF7A9FC5A483E
S11317A0FFF7A6FC5948FFF7A3FC5948FFF7A0FC34
S11317B05848FFF79DFC5848FFF79AFC5748FFF735
S11317C097FC5748FFF794FC5648FFF791FC390003
S11317D00E9A5548FFF78CFC5448FFF789FC54488F
S11317E0FFF786FC5348FFF783FC5348FFF780FC60
S11317F05248FFF77DFC5248FFF77AFC5148FFF747
S113180077FC5148FFF774FC5048FFF771FC5048CF
S1131810FFF76EFC4F48FFF76BFC4F48FFF768FC7F
S11318204E48FFF765FCFFF71DFDFF210500014051
S11318300A2900D165E3080050382A2800D9D1E0EC
S1131840FFF79CF95A03D0009DFFD000D000D000D0
S1131850D000D000D000D0005803D000D000D00079
S1131860D000D000D0009000D200E400F400FE00CC
S113187007013E014901D0005A01B801C501C50163
S1131880FB019DFFFE01D0000B021502A00205031F
S1131890D000D0001203D0001A03314B0F93012360
S11318A06CE7C046C50E00001802002064FEFF1F4E
S11318B0ECFEFF1FC6510000EB5100001F52000058
S11318C02752000098FEFF1F90FEFF1F6A5200007F
S11318D0009014540490145444520000089014547A
S11318E0C8FFFF1F6552000076FEFF1F7152000003
S11318F0B80B000074FEFF1F78FEFF1F4464000055
S1131900905200009A520000B7520000D3520000D7
S1131910EF5200000C5300003353000052530000F8
S11319207E530000A9530000CC530000FB53000079
S1131930175400003B5400005F540000865400001C
S1131940AE540000CC540000E954000008550000D7
S113195027550000415500006C55000097550000C4
S1131960C0FFFF1FC448FFF7C3FBC448FFF7C0FB19
S1131970C348FFF7BDFBC348FFF7BAFBC248FFF7F4
S1131980B7FBC248FFF7B4FBC148FFF7B1FBC1483E
S1131990FFF7AEFBC048FFF7ABFBC048FFF7A8FB5F
S11319A0BF48FFF7A5FBBF48FFF7A2FBBE48FFF700
S11319B09FFBBE48FFF79CFBBD48FFF799FBBD4862
S11319C0FFF796FBBC48FFF793FBBC48FFF790FB7F
S11319D0BB48FFF78DFBFFF745FCFF21014035298C
S11319E000D15AE7B7480EE0B748FFF781FBFFF78D
S11319F054FCB64BB64A18601968914201D1B54AF5
S1131A001A601968B448FFF773FBB8E6B348FFF7E8
S1131A106FFBFFF742FCB24BAD4A18601968914264
S1131A2001D1AC4A1A601968AE48ECE7AE48FFF73A
S1131A305FFBFFF732FCAD4B18601968AC48E2E776
S1131A40AC48FFF755FBFFF713FC07000100AA4859
S1131A50D9E7AA48FFF74CFBFFF70AFCA84D0100A1
S1131A6004002800FFF744FBA648FFF741FBFFF7FB
S1131A70FFFB16AE010030702800FFF739FBA248C7
S1131A80992C36D0914B2BAD1B682C802C939F4BFB
S1131A901A881B88FFF700FB9D4B17AA1B68177059
S1131AA002930123290000200193009602F09CF880
S1131AB0011E02D09748FFF71BFBFFF703FB5EE60E
S1131AC09548FFF715FBFFF7E8FB80B220802188DB
S1131AD0924889B297E79248FFF70AFB914C20009D
S1131AE0FFF706FB2000FFF703FB8F48FFF700FB1F
S1131AF08E48FFF7FDFA42E639008D48FFF7F8FA01
S1131B00FFF7B0FB10908B48FFF7F2FAFFF7AAFB40
S1131B1011908948FFF7ECFAFFF7A4FB129087486D
S1131B20FFF7E6FAFFF7B9FB06008548FFF7E0FA8E
S1131B30FFF7B3FB05008348FFF7DAFAFFF7ADFBC5
S1131B4004008148FFF7D4FAFFF792FB2B003A0018
S1131B5013900E997D480096FFF7CAFA6B4B0E9AC4
S1131B601B889BB2022A21D07948032A1FD01298DD
S1131B7007933038421E90410A901098139A3038D7
S1131B80431E984131230293002306901198A4B276
S1131B903038089204906F4A6F497048099405964A
S1131BA0039501930097FFF799FB86E76C48FFF7CD
S1131BB09FFA82E76B48FFF79BFA0124200000217B
S1131BC0FFF7BCFA21003C20FFF7B8FAF6E75448C7
S1131BD0FFF78EFA6448FFF78BFAFFF749FB2BAE49
S1131BE030706248FFF784FAFFF757FB474BEDB2BA
S1131BF01B880400010032789BB26C2D10D15C4824
S1131C00FFF776FA0025A54200DBB8E52BAB1A787E
S1131C1000230121FF200093FFF742FC0135F2E786
S1131C205448FFF765FA0025A54200DBA7E501212A
S1131C302BA8FFF757FC0135F6E7238823889EE598
S1131C400021022000F0CCF9031E0D9000D196E58E
S1131C504948082B00D192E54BE70021082000F009
S1131C60BFF90D9B4548002B00D188E541E72C487E
S1131C70FFF73EFA42483CE7AA550000B55500007C
S1131C80F35500003556000076560000B6560000A5
S1131C90E65600002357000062570000A0570000DA
S1131CA0DD5700001B5800005858000097580000EA
S1131CB0D4580000115900004C5900008959000003
S1131CC0C6590000DA590000F659000078FEFF1FDB
S1131CD00F27000010270000245A0000445A000077
S1131CE084FEFF1F725A00008C5A00008CFEFF1FF6
S1131CF0BB5A0000D65A00000C5B0000235B0000B6
S1131D00565B00006C5B0000955B000074FEFF1FD7
S1131D107CFEFF1FBB5B0000DC5B0000155C000069
S1131D20445C0000725C0000A25C0000D35C000014
S1131D30055D00003F5D0000685D0000815D0000FE
S1131D40C05D0000EC5D0000245E0000555E0000F4
S1131D50CB5E0000C0FFFF1F81210000925E0000E7
S1131D60A05E0000FC5E00001F5F00003E5F0000FC
S1131D705E5F0000A95F0000F45F00005260000095
S1131D80AF6000002BA9002001F0F4F9FA212B9890
S1131D908900FEF7FDFE01005B48FFF7A9F901F099
S1131DA03DFC01005948FFF7A3F901F0CFF8010009
S1131DB05748FFF79DF9574B574819684B1E9941EF
S1131DC0FFF796F9002001F02CFA01005348FFF7C1
S1131DD08FF9002001F034FA01005148FFF788F927
S1131DE0002001F032FA01004E48FFF781F900208B
S1131DF001F000FA01004C48FFF77AF9012001F0E4
S1131E00F9F901004948FFF773F9494B4948196842
S1131E104B1E9941FFF76CF9002001F0F3F9010022
S1131E204548FFF765F9454B454819684B1E9941EC
S1131E30FFF75EF9434B444819684B1E9941FFF77D
S1131E4057F9002001F006FA01004048DBE50F9B3A
S1131E503F48002B00D14CE63E48FFF749F9FFF715
S1131E6007FA0F9B58708AE43B48FFF741F93B4857
S1131E7000F09FFF3A483CE63A48FFF739F9FFF78C
S1131E800CFA85B229003848FFF732F93748FFF7D2
S1131E902FF9FFF7E7F9C4B23548FFF729F900F045
S1131EA043FF0121002000F055F9683C63425C4186
S1131EB006003048FFF71CF92F48FFF719F92F489F
S1131EC0E4B2FFF715F9200000F098F931002C482E
S1131ED0FFF70EF9002D08D02900042000F080F847
S1131EE0011E02D02748FFF703F900F04BFC7128CC
S1131EF0E9D1E2E52448FCE52448FFF7F9F8244851
S1131F00F7E52448F5E5C046DB600000ED6000001D
S1131F10036100003C80845E2A6100003B61000094
S1131F204C6100005D61000071610000856100008A
S1131F303C80045099610000AA61000034808459F7
S1131F40BB6100003480045ACC610000DE610000F3
S1131F50EF6100002D6200006562000010270000A0
S1131F60846200008E620000DA62000010630000E8
S1131F70215B0000396300005B630000205B00000C
S1131F80FE60000071630000AF630000C5630000E1
S1131F90E7630000126400001FB5040001A90020DB
S1131FA002F096FA694601A802F0D0F9009B68464F
S1131FB01C1901A9009402F051F9012201A9002081
S1131FC002F0B2FA1FBD00000022034B1A60802207
S1131FD0024BD205DA67704700901C5804E100E018
S1131FE070B50D000A2408281CD8FEF7BDFD051D98
S1131FF02A3F546771795C0001F010FB0524012825
S113200010D0FFF7E1FF2800FFF7C6FF002108000A
S113201001F08EF901210400002000F019FF002CCA
S113202022D10024200070BD01F0F8FA0624012812
S1132030F8D0FFF7C9FF2800FFF7AEFF0021012009
S1132040E6E701F0EBFA08240128EBD000F07EFF6C
S1132050002803D00121002000F0FAFE0021022014
S113206001F066F90028DCD00924DBE701F0D6FA98
S113207007240028D6D0FFF7A7FF2800FFF78CFF1E
S11320800021032001F054F9040001F0C7FA0121F2
S11320900028C4D1C1E7FFF797FF2800FFF77CFFB2
S11320A000210420EEE70021082001F041F9041E7C
S11320B0DAD10121080000F0CBFEB3E7FFF784FF7B
S11320C02800FFF769FF0021052001F031F9CBE773
S11320D0FFF77AFF2800FFF75FFF00210620F4E7EF
S11320E0FFF772FF2800FFF757FF00210720ECE7F6
S11320F0F0B506000D00114B89B05A7806AC228069
S11321000F4A05AF12680792D88880B2FEF7EAFF3B
S11321103E7004AE3570FEF7BFFF0A4B3A001B68F1
S113212021000293012300200193009601F05CFD3D
S1132130002800D0022009B0F0BDC046C0FFFF1F38
S113214078FEFF1F7CFEFF1F014B5870D98070473B
S1132150C0FFFF1F70B50400084B0D00D88880B283
S1132160FEF7C0FF21000920FFF7C2FF2900040089
S11321702A20FFF7BDFF2043C0B270BDC0FFFF1F80
S113218070B588B06A46184B04001B780E001375AE
S1132190182822D8C31F0320012B23D9134B06ADC3
S11321A05A782A80124A12680792D88880B2FEF7B9
S11321B099FF6B461C75FEF76FFF0E4B29001B68D9
S11321C0002002930C4B0196009305AA012301F011
S11321D018FD002806D0022004E023001D3B032044
S11321E0142BDBD908B070BD9C640000C0FFFF1F36
S11321F078FEFF1F7CFEFF1FC2FFFF1F70B5324C2D
S11322000500E08880B2FEF76DFF02210120FFF790
S1132210B7FFA178E278C9B2D2B200281DD02B480A
S1132220FEF766FF02210320FFF7AAFFA178E278F8
S1132230C9B2D2B2002822D02448FEF759FF0221A5
S11322400520FFF79DFFA178E278C9B2D2B2002839
S113225027D01E48FEF74CFF70BD002D03D01C484C
S1132260FEF746FFDEE79208890111438022194BED
S1132270920151401848C918FEF73AFFD2E7002DE1
S113228003D01348FEF734FFD9E7920889011143BC
S11322908022104B920151400F48C918FEF728FFC5
S11322A0CDE7002D03D00A48FEF722FFD4E79208B9
S11322B0890111438022074B920151400648C918F5
S11322C0FEF716FFC8E7C046C0FFFF1F9E6400006C
S11322D0A564000000E0FFFFB564000037B50E24DC
S11322E0FF340500200001F035FA0A2000F061FDFA
S11322F0200001F03DFA0C2001F03AFAFA23074AD3
S11323009B00157000210193012308000093044BE6
S113231002F05AFA200001F01DFA37BD88000020AF
S113232068000020C02310B58024714A9B0013600C
S1132330704A64001360FEF761FE6F4B20001C605E
S11323406E4B1C606E4B1C6001F004FA642000F0BC
S113235030FD200001F00CFA642000F02AFD20007A
S113236001F0F8F9642000F024FDAE20FFF7B6FF79
S1132370A020FFF7B3FF7220FFF7B0FFA120FFF703
S1132380ADFF0020FFF7AAFFA220FFF7A7FF002060
S1132390FFF7A4FFA420FFF7A1FFA820FFF79EFFEB
S11323A03F20FFF79BFFAD20FFF798FF8E20FFF73C
S11323B095FFB020FFF792FF0B20FFF78FFFB120AE
S11323C0FFF78CFF3120FFF789FFB320FFF786FF6B
S11323D0F020FFF783FF8A20FFF780FF6420FFF7D8
S11323E07DFF8B20FFF77AFF7820FFF777FF8A20A5
S11323F0FFF774FF6420FFF771FFBB20FFF76EFF48
S11324003A20FFF76BFFBE20FFF768FF3E20FFF77F
S113241065FF8720FFF762FF0620FFF75FFF81203B
S1132420FFF75CFF9120FFF759FF8220FFF756FF6B
S11324305020FFF753FF8320FFF750FF7D20FFF765
S11324404DFFAF20FFF74AFF2E49002000F08EF920
S11324502620FFF743FF0120FFF740FF2A49002011
S113246000F084F92520FFF739FF0020FFF736FF3D
S11324700020FFF733FF5F20FFF730FF3F20FFF717
S11324802DFF2249002000F071F92220FFF726FFDA
S11324900020FFF723FF0020FFF720FF7F20FFF736
S11324A01DFF3F20FFF71AFF0020FFF717FF1E2034
S11324B0FFF714FF0020FFF711FF0020FFF70EFFC6
S11324C01F20FFF70BFF0020FFF708FF8220FFF714
S11324D005FFFF20FFF702FF8720FFF7FFFE0F2015
S11324E0FFF7FCFE0A49002000F040F9002010BD6F
S11324F0209014542490145434A014543090145440
S113250000A01454BA640000E364000002650000F3
S1132510206500000369C268934201D880681B18D3
S1132520013B981A7047F7B58368C46801931F1B71
S1132530436805000E001819A418974207D83A00FA
S1132540FEF778F8019B6868E41A2200F119FEF797
S113255071F8EC60F7BD0023F7B506001700C568F5
S1132560019100933369B4689D421FD2013B5B1B08
S1132570641BBC4200D93C009C4200D91C00736817
S1132580220058190199FEF755F8009B2D191B19C3
S11325900093019B3F1B1B190193B368AB4200D10D
S11325A00025F560002FDDD10098FEBD1B19DDE785
S11325B0022310B50F4C104A236163610F4BA261D3
S11325C0E3616423A2640E4A2362E26400230422CA
S11325D0A3626362E362A3656365E36522650949F7
S11325E0E01DFEF7A1F920000749FEF79DF920231D
S11325F0A37110BDA8000020406500002401002044
S113260020010020496500004D650000F0B5274B0E
S113261085B01B780E0002900192002B01D1FFF7C8
S1132620C7FF1823029A00255343204AD3185A6D32
S11326309C6D0392944219D91B6D019D1B1B9D42F5
S113264000D91D001827029B30005F43174B2A0056
S1132650DF19FB6C76191919FDF7ECFF019B64195E
S11326605B1B01933B6DA34200D10024039B019F9C
S11326701B1B9F4200D91F00002F0CD01823029A65
S113268030005343094AED19D318D96C3A0009199B
S1132690FDF7D0FFE419002D05D01823029A034852
S11326A05343C0188465280005B0F0BDA80000207D
S11326B010B50B00EFF31084012181F31088190089
S11326C0FFF7A4FF84F3108810BD0000F8B51600CE
S11326D01822451C55434243164B0F005D199B18A5
S11326E0DC6A012C10D0022C1BD0002C1FD1280036
S11326F0FFF710FF864205D8320039002800FFF7A3
S113270012FF34002000F8BD2800FFF703FF340057
S1132710864200D90400220039002800FFF703FF95
S1132720F0E732002800FFF716FF0400EAE7002470
S1132730E8E7C046A8000020F8B50B4B04001B785E
S11327400E001700002B01D1FFF732FFEFF31085C5
S1132750012181F310883A0031002000FFF7B6FF11
S113276085F31088F8BDC046A800002070B50500A8
S113277008000C00FEF7E0F8210002002800FFF733
S1132780DBFF70BD13B56B46DC1D01222100002068
S1132790FFF78EFF012801D1207816BD01204042A9
S11327A0FBE70000F7B5164C0193237805000F00F2
S11327B01600002B01D1FFF7FBFE2369AB421CD9A5
S11327C0EFF31082012181F31088002D0CD018231F
S11327D0691C59436B43675061184E600199E318B3
S11327E0196200219962596218204543089B6419B3
S11327F0E36282F310880020FEBD01204042FBE723
S1132800A8000020826810B504004068531C83426D
S113281005D820688154A360E3680133E360A268AB
S113282063689A4209D121682069FFF785FFA3688C
S1132830984203D001235B42E36010BD0023A360F0
S1132840FBE70000F0B5050017000800012685B07D
S11328500A9C02910093B84219D2009A01969642BA
S113286000D2019201230B9A1A4003920B9A1A4246
S113287002D1002C10D10024EB680126002B4BDB85
S1132880009B012B1FD9013B00937E43F8E73900DD
S1132890FEF77EF90136DEE70B9B20269B0704D565
S11328A0009B1036002B00D0103E019BA342E3D2C4
S11328B031002800FFF7A6FFEB68013C002BDBDBAF
S11328C0002CF2D1D7E731000298FEF761F9874274
S11328D0DBD902983100FEF7E1F9114B0291195C42
S11328E02800FFF78FFFEB68002B05DB3900300071
S11328F0FEF74EF9BE4211D2039B002B0CD0002CE4
S11329000AD0019BA34207D220212800FFF77AFFB7
S1132910EB68013C002BF2DA05B0F0BD0600D8E705
S113292054650000F0B58FB007900E00180014999C
S113293015000693FDF712FE069B079A0993149B54
S11329400D920A9300230B930C93317801360029DE
S113295007D10C9B0293002B00DD09E10C980FB00A
S1132960F0BD252900D0B3E000270822042006E0AA
S1132970302B0DD1022300E001231F430E003378D6
S1132980711C2D2BF8D0F3D8232B10D02B2B0CD06B
S113299000240A213378721C18003038092808D81A
S11329A04C43303C16001C19F4E70743E6E7174391
S11329B0E4E7002102912E2B0ED116000A20327872
S11329C0711C1300303B092B06D8029B0E004343B5
S11329D0303BD3180293F2E7042331780A0001361E
S11329E09A43682A01D13178F8E7782909D86F2900
S11329F00BD8632967D017D8252969D0582900D165
S1132A0095E00C9B002BA0DAA3E770390800082995
S1132A10F7D8FEF7B3F8A500F6FFF6FF9400F6FF2B
S1132A208300F6FFF6FF8C006429EAD12B681A1D97
S1132A301B682A60DA179818039301235040049303
S1132A40092849DC029B049A0593934200D205921B
S1132A50002C05D0039B002B01DB7B0700D5013C38
S1132A6002231F4202D0029B002B05D001231F42E8
S1132A7002D1002C36D100240C9B0493002BC0DB24
S1132A80039B002B3ADA2D215B42039309A8FFF73D
S1132A90B9FE0C9B002BB4DB03233B40022B05D176
S1132AA0029B002B02D1002C2CD100240C9B0493FC
S1132AB0002BA6DB0A22029B03990197009409A824
S1132AC0FFF7C0FE9DE72B6819681A1D2A60C9B27A
S1132AD009A8FFF797FE94E70A21FEF7E3F8049BA1
S1132AE00133ACE7059BA342C6D2202109A8FFF716
S1132AF089FE0C9B013C002BBBDABDE77B07C8D5E4
S1132B002B21C3E7059BA342D0D2302109A8FFF7AC
S1132B1079FE0C9B013C002BC5DAC7E70A22296821
S1132B2001970B1D2B60029B00940968C7E7296875
S1132B3001970B1D2B60029B00941022F5E72B6874
S1132B401A1D2A601C6821780134002900D158E735
S1132B5009A8FFF757FE0C9B0293002BF3DA50E70A
S1132B6029680B1D2B600023019308330093E4E7CD
S1132B700B9A002A03D006990798FFF7DDFD0C9BFA
S1132B8002930B9B0393039A029B944663440C9316
S1132B90E4E610B5002000F0F9FD10BD10B50020EA
S1132BA001F020FD10BD10B5002001F0F9F910BDB1
S1132BB0082310B5164A9178194202D091780B4334
S1132BC09370882100222220124B49015A50124945
S1132BD0124C08708020124940025850196811485C
S1132BE001401960195910480840C0218904014363
S1132BF0195180210D4B1A7219767F391A70597048
S1132C000B490A700C3299791142FCD110BDC046AF
S1132C1000D007400070044000E0074004100000AA
S1132C2044100000FFFFF3FFFFFFFFF000400640E9
S1132C30005006401249134810B5814205D00022C5
S1132C40114B9B089B009A420FD1104B104A99607C
S1132C50002310491048521A9A420AD100210F4BFE
S1132C600F4AD21A013A08D210BD84588C5004324B
S1132C70E9E7CC5CC4540133EEE719700133F1E7A2
S1132C8000000000000000000000000000ED00E073
S1132C90C8670000C466000000FEFF1F04FFFF1F9A
S1132CA024020020030041700020187058609860CE
S1132CB0704710B5437804000120FF2B08D000F0C2
S1132CC0DDFA63780133DBB2637000F0CBFA0020E5
S1132CD010BD0020704770B504000D0000F0CEFA5E
S1132CE0E1682943E16000F0BDFA002070BD0000F6
S1132CF000220A4B9A641A0040329A631A00303256
S1132D009A621A0020329A611A0010329A60044AB8
S1132D101360044B9B60DB607047C0468C0100204D
S1132D2088010020DC0100200022024B1A60186890
S1132D3080B270470C007C5070B5437804000D00DD
S1132D40002B0BD0002500F099FA6378013BDBB22D
S1132D506370257000F086FA280070BD02200029F7
S1132D60FBD02378002B17D0FFF7DEFF6368A2683F
S1132D70984204D3C01A824206D30320EDE7C01A56
S1132D8080235B02C018F6E700F078FA0023237072
S1132D9000F068FA0220E0E74B1CEED000F06EFA77
S1132DA00123237000F05EFAFFF7BEFFA5606060A8
S1132DB0E3E770B50500FFF7B7FF8026040076024D
S1132DC0FFF7B2FF0300844203D8031B9D42F7D2EE
S1132DD070BD301BC318F9E710B5012801D100F00C
S1132DE04DFA10BD10B5012801D100F03BFA10BD19
S1132DF010B5FFF77DFF01230020084A084913603E
S1132E00084A094C1060086004212160074C2160C5
S1132E1007490B6007490860136010BD38800450EF
S1132E2000008450000004500000045104000451C8
S1132E3004000C500000045310B5044C20602171B0
S1132E400020A2602373637310BDC046EC01002010
S1132E500422F0B587B005AC3B4D0290039120707D
S1132E6061702B790192834225D92B7B6B730123EB
S1132E70A37000231E000193334F3B7BB3421DD844
S1132E80019B002B02D0039B012B48D10120FFF7AB
S1132E90A3FF0C20029B022658432B68181800F04D
S1132EA0D7F8029B01206B710025FFF79BFFA670EA
S1132EB03B7BAB421AD8019807B0F0BDBA68B300A7
S1132EC09B58002B0FD001211A790A420BD0200005
S1132ED01A6899689047002805D0039B7E73002BDD
S1132EE01BD0052301930136F6B2C5E7BA68AB00DF
S1132EF09B58002B0ED01A7932420BD020001A684E
S1132F0099689047002805D0039B7D73002B17D048
S1132F10062301930135EDB2CAE70523019300238B
S1132F20A370013EF6B2FF2EC5D0074BB2009B68DA
S1132F30D358002BF5D020001A6899689047F0E721
S1132F4006230193B7E7C046EC010020014B5879F2
S1132F507047C046EC01002013B50400002021781E
S1132F600190022920D0032922D0012925D12279D8
S1132F7001AB144801F0FEF8002814D1A3795A1EBD
S1132F809341114ADB01137063785A1E93410F4A2F
S1132F905B001370A2780E4B1A70E2780D4B1A7016
S1132FA062790D4B1A7016BD0100227901ABE0E77E
S1132FB001A9044801F020F9DEE701A9014801F064
S1132FC0BDF8D9E7004006401840865300408650BB
S1132FD0004006500140065018401650084A430964
S1132FE09B009B18F8221205C0051040184380234B
S1132FF05B0518430068431E9841C0B27047C04641
S113300028800440074A43099B009B18F8221205B4
S1133010C0051040184380235B0518430023036058
S11330207047C04628800440F821084A43099B00A1
S11330309B180905C2050A40134380225205134315
S11330401F2210401E3A82401A60704728800440B4
S1133050072373B5009300230400104D1A000121C7
S1133060280001F0B1FA2000FFF776FF637A280008
S113307000930023217A1A0001F0A6FAE379084AA2
S11330809B041360074BA17A1D68280001F0D0F857
S11330902800E17A01F0DBF8002076BD00700440DE
S11330A000700C59BC65000010B5054801F006F825
S11330B0044B1968C9B20131FDF76AFD10BDC04661
S11330C00040064044801C5E10B5FFF7EDFF10BDC4
S11330D010B5054800F0F2FF044B1968C9B201317C
S11330E0FDF756FD10BDC04600400640448014580C
S11330F010B5FFF7EDFF10BD0B4B1B68DBB2022BC5
S11331000CD0032B0DD00020834206D1074A10684F
S113311080221202904200D018007047044B1868B5
S1133120FBE7FA208000F8E700700C591802002031
S11331301C02002010B5FFF7DFFF10BD054B10B5D2
S1133140186801F07CF80023984201D0024B1B68F8
S1133150180010BDBC65000018020020044B0120BB
S11331601B6810B5DBB2002B01D0FFF7E7FF10BDE1
S11331700480045210B50C0012282AD8FDF7F4FC80
S11331800A0A0A0F290F12152929181B2929292986
S11331901E222600FFF788FF2060002010BDFFF7E5
S11331A097FFF9E7FFF7A8FFF6E7FFF7C7FFF3E795
S11331B00A4B2360F1E7FFF7D1FFEDE7084800F081
S11331C07DFFE9E7064800F063FFE5E7FA239B008B
S11331D0EFE7002302202360E0E7C046006CDC0236
S11331E00040064010B5024B185CFFF71DFF10BDF0
S11331F06465000010B5024B185CFFF7EFFE10BDCC
S11332006465000010B5BB20FFF7E8FE10BD10B5E3
S11332107620FFF709FF10BD10B57620FFF7F2FE08
S113322010BD10B57620FFF7D9FE10BD10B566208D
S1133230FFF7FAFE10BD10B56620FFF7E3FE10BDE0
S113324010B56620FFF7CAFE10BD10B59420FFF735
S1133250C5FE10BD10B5024B185CFFF7BFFE10BDD4
S113326066650000044A1368002B04D0013B136018
S1133270002B00D162B67047FC01002072B6024AEE
S11332801368013313607047FC01002010B5064C2D
S1133290064801F029FC042801D1002010BD013C9E
S11332A0002CF5D10320F9E7EA03000000E0074011
S11332B010B50B4B0B490A78002A07D0084C0A4872
S11332C001F012FC012806D1002003E0013B002B91
S11332D0F1D1032010BD013C002CF0D1F9E7C04628
S11332E0EA03000002D0075100E00740F7B50700E9
S11332F00E00150001200193002F15D0002913D0D2
S1133300FFF76AFD094C102200212000FDF7E4F9C3
S113331027602671002D03D0019BA560237363737E
S11333200120FFF75FFD0020FEBDC0460002002023
S1133330F0B5B44C8BB000900191237B01206373F2
S1133340FFF74AFD2379009A934206D80120FFF73C
S113335049FD022630000BB0F0BD009A23689200AC
S1133360D558019B07AE2C783372009B2200337032
S113337002239A4375600292012A01D0052C0AD1D6
S11333800121A14801F004FB002807D10120FFF727
S113339029FD0126DEE70321072CF2D801237372ED
S11333A000263700974B1B7BBB422CD80120FFF72C
S11333B019FD964800F0A6FE029B012B52D101385C
S11333C002283BD9019B012B00D013E106260120E2
S11333D0FFF702FD0023012507AC013F6372FFB232
S11333E0FF2F00D1B2E0874BBA009B68D358002B63
S11333F006D01A792A4203D020001A6899689047A7
S1133400013FFFB2ECE77F4B9B680393039ABB0039
S11334109B58002B0FD001211A790A420BD01A684D
S1133420996807A89047002805D0764B04265F7357
S1133430019B012BBAD10137FFB2B3E7FFF758FE66
S1133440734B9842BED8FFF72FFE724B9842B9D8FF
S1133450FFF73EFE6F4B9842B4D8FFF735FE6D4B35
S11334609842AFD8019B012B00D0C7E00A2C00D9A9
S1133470BEE02000FDF778FB060A0D1E869C7980CD
S11334802F6E7400002205AB1A702DE0032205ABE9
S1133490FAE75D4801F028FB012808D000215A48CA
S11334A001F086FAFFF704FF061E00D052E701225E
S11334B005ABE9E7544801F017FB042808D00221C2
S11334C0514801F075FAFFF7E1FE061E00D041E70E
S11334D0042205ABD8E7072205AB1A7000225A7004
S11334E0EA789A702A79DA702300083B022B04D810
S11334F06B7904AA9372AB79D3726B78002B09D0E1
S1133500012C07D9A9780222434B002953D0196909
S11335100A431A613C4805A901F06EFA002800D05C
S11335200326002C4BD1FFF7C3FE061E00D011E783
S113353000260120FFF750FC009B324D0024AB73A2
S1133540022307AF7B722B7BA3423DD80120FFF7F8
S113355049FCFFE6072205AB1A70063A5A70C3E726
S1133560072205AB1A70043AF8E7022205AB1A7079
S1133570013A1A715A71B7E70222012105AB1A7098
S11335801971F7E70222002705AB1A701E48013AA9
S11335901A715F7101F0A8FA0128A5D039001A4800
S11335A001F006FAFFF784FE0600B8429CD0D1E68B
S11335B0052205AB68E7196991431961AAE7012C53
S11335C0B7D1FFF763FEB0E7AA68A3009B58002BAE
S11335D00BD002211A790A4207D038001A68996878
S11335E09047002801D005266C730134E4B2AAE7A1
S11335F00326AFE6002E00D1E8E6E8E6002E00D070
S1133600E5E633E70002002000E007400040064002
S113361040420F0080841E0000ED00E010B5064813
S113362001F062FA03000020012B03D00B30042BBD
S113363000D10A3810BDC04600E00740F7B5FF24AA
S113364003681C4A1E0A26401C40B3009F581A4AAD
S113365005009B5830000193FFF7C4FD00222100B0
S1133660380001F049FA019BA400E41884232A7964
S11336705B05234352001A6080236A795B05234368
S11336801A609023AA795B05234312011A60EA7930
S11336900A4B1C4313042360002A0AD0084B9B578F
S11336A0002B06D01F2213401E3A9A401300054AED
S11336B01360F7BDC0650000C8650000000018185D
S11336C0D065000000E100E0F8B5FF2405000368C0
S11336D0114A180A20401C4083009F580F4A9E58E4
S11336E0FFF780FD38002100012201F005FA6A6825
S11336F02100380001F00FFA88232A7AA400A419C3
S11337005B05234392001A6098235B051C436B7A84
S11337109B012360F8BDC046C0650000C865000079
S113372070B50C00002807D1002C0FD170BD050026
S11337300835FFF783FF280003680133F7D1F3E767
S1133740250020000C35FFF7BFFF2C002368013350
S1133750F6D1EBE7FF22030A044913409B005958B2
S11337600123104083404B607047C046C065000091
S1133770FF22030A044913409B00595801231040B7
S113378083408B607047C046C0650000084B8200D0
S1133790D258942310B502325B0513431B78002BD7
S11337A002D000F03BFA10BD00F08EFAFBE7C046F1
S11337B068650000020080230C325B0513431A780D
S11337C0002AFCD00171704710B5104B8000C4581A
S11337D0E37C002B05D0237C052B02D0237C042B17
S11337E00BD10B4B18589823821C5B051343002202
S11337F01A7001F0FFF901236374A37C002B03D03A
S113380020001830FFF755FA10BDC0461002002002
S11338106865000070B50D00074B8000C458200097
S113382029001830FFF788FA0328F8D0002801D0BF
S113383004232374237C70BD10020020F0B517000C
S1133840002289B005930EAB1B7805000393830017
S113385032481E5832481C5807AB1A80A37C880A89
S113386004930223FF3363828B0A0193CBB21E2895
S113387001D11A000B0A5B00D8B2019B00211E2B58
S113388005D08F4203D1012303995B1A59B2014336
S1133890CBB202930299019807AB197001211E283B
S11338A001D15A704918A3603000E1600299FFF712
S11338B081FF28000F99FFF7ADFF237C002B0CD16B
S11338C0002F0AD0059BA760E36030003978FFF72A
S11338D071FF28000F99FFF79DFF237C039A1A4379
S11338E014D1019B1E2B01D0002F0FD000230127E0
S11338F03000A360E76001F06BF9029930003943AE
S1133900FFF758FF28000F99FFF784FF0023E374A3
S1133910049BA374237C09B0F0BDC0466865000015
S113392010020020F7B583000193184B8200D7588A
S113393005000C000126002F26D1154B3900D35861
S1133940200024220193FCF7C7FE20003900183020
S1133950FFF7A8F92800FFF769FC019801F0E3F8E4
S11339600A4BAA00D4501F220A4B5B5D134032005D
S11339709A40094B1A609C22019B5205023313435F
S1133980802266743E001A703000FEBD10020020D2
S1133990686500006C65000000E100E0F7B50E4EBC
S11339A08500AB59002701930C4B0400EA589C2373
S11339B002325B0513431F70FFF73DFC084B01986F
S11339C01A5D1F231A401E3B9340064A1830D367E2
S11339D0FFF77FF9AF51F7BD1002002068650000C2
S11339E06C65000004E100E00A4B800070B5C55826
S11339F04B686A690C0093420BD0074BC658FFF71B
S1133A0067FB002301006268300001F09BF86368E3
S1133A106B6170BD1002002068650000F0B587B0CE
S1133A2004920593334A0FAB1E7883009C5803918C
S1133A30627C0700002A03D10320207407B0F0BD84
S1133A40002E01D11E220E922B4A3800D558002395
S1133A500399E360A360237423606374A674FFF77F
S1133A60C3FF90231021AA1C5B0513431970842300
S1133A70E91C5B050B430221197098235B05134372
S1133A8002934023029A2800137001F0A1F8039BCB
S1133A90380019880E9B049A019301230093059B17
S1133AA0FFF7CCFE0D9B002B17D0237C002B11D1EC
S1133AB00C9B2800A3600D9BE3600C9B1978FFF717
S1133AC079FE002E03D038000E99FFF7A3FE207C68
S1133AD0C0B2B3E7237C042BF9D10023029A1370FC
S1133AE0EB789B0602D5280001F084F80123637467
S1133AF0EDE7C0461002002068650000F0B589B00B
S1133B00079311AB1B780692354A029383009C58A5
S1133B100591627C0600002A03D10320207409B0B9
S1133B20F0BD029A002A01D11E32109200272D4ABC
S1133B300599D5580E9B300023600F9BA7606360E6
S1133B40029BE760A37427746774FFF74DFF90230B
S1133B50AA1C5B051A4310231370842304925B058B
S1133B60EA1C134302221A709823AA185B051A430D
S1133B70402328001370039201F02AF8059B069A4B
S1133B801988109B300001930097079BFFF756FE9E
S1133B90237CDAB2BB4215D1049BA91C1A708C2376
S1133BA05B050B430F99012900D108221A702B7968
S1133BB0029B002B03D030001099FFF72BFE207CD2
S1133BC0C0B2ACE7237C042BF9D1039B1F70EB78C4
S1133BD09B0602D5280001F00DF801236374EEE77B
S1133BE010020020686500001FB501240394089C9E
S1133BF00294079C0194069C0094FFF70FFF04B005
S1133C0010BD1FB501240394089C0294079C0194E1
S1133C10069C0094FFF772FF04B010BD244B70B5EE
S1133C208400E5588423EA1C5B05134302221A70BE
S1133C309023A9185B050B431B78EA78DBB2920644
S1133C401DD5942252050A431278002A17D0194A26
S1133C50A458012B14D1EA781A4204D004332374F3
S1133C60FFF7B2FD0BE0E368013BE360002BF7D004
S1133C70A36828005A1CA2605978FFF79BFD70BD09
S1133C806268013A6260002A06D08C235B05012A2F
S1133C900AD000220B4309E0FFF796FD23685A1C63
S1133CA022602A791A70EAE708220B431A70F5E7B2
S1133CB06865000010020020C31C842040051843DE
S1133CC002230370704700000122F0B58C4B0700FB
S1133CD08000C55887B0EB1C0093EB78894C1B0916
S1133CE01A4004920122EB7804599B091A4001926C
S1133CF09022AB1D52051A43944612789020D2B2FA
S1133D000592942252051A431178AE1CCAB202924B
S1133D10982240055205304313431A7800900078E6
S1133D20D2B2C0B20390002932D0059900290DD037
S1133D301023624628001370FFF7BEFF236B002B8D
S1133D4050D00121626BF8B298474BE0002A1FD093
S1133D50402228001A70FFF7AFFF23002C331B7892
S1133D60002B03D19822520516433370236B002B8A
S1133D7003D08021626BF8B29847E37D002B04D016
S1133D80200080211830FEF7A6FF0A23237029E0C3
S1133D902800FFF791FF049B002B25D09022EB1CF9
S1133DA05205134310221A70019B002B0FD0EB789D
S1133DB05B07DA0F002B46DB009B1A70236B002B8A
S1133DC003D00421626BF8B298472B790AE00823E8
S1133DD023702C342378002B04D198235B051E43D5
S1133DE0019B337007B0F0BD019B002BDFD1039B17
S1133DF0012B51D1EB78039A13422ED0009B019AE8
S1133E001A702B7923002C331B78002B07D1029BCB
S1133E10002B04D198235B051E43029B3370236B54
S1133E20002B03D00821626BF8B29847A37D002BC6
S1133E3004D0200008211830FEF74DFF00236360F2
S1133E40E3602375CEE71023009A1370236B002BD5
S1133E5003D00221626BF8B298476368002B4DD0FF
S1133E6028008022E3680C30520519780243107848
S1133E700028FCD029710133E3606368013B63606F
S1133E806368002BAED1E3602375236B002BA9D0AC
S1133E901021626BF8B257E72B79A268DBB2002AD3
S1133EA02AD022691370236901332361A368013B7B
S1133EB0A360A368002B95D1029B002B11D1230092
S1133EC02C331B78002B04D198235B051E43029BE3
S1133ED03370E37D002B04D0200020211830FEF73E
S1133EE0FAFE002363752361236B002B00D179E76D
S1133EF02021626BF8B227E7072347E7062345E74B
S1133F006865000010020020042902D0072907D0A8
S1133F107047902303305B05184310230370F7E7C1
S1133F209C2303305B0518438023F7E70A4B80008A
S1133F3070B5C458094B0025C258DC2308325B0510
S1133F4013431D60A37CAB4203D020001430FEF762
S1133F50B0FE257470BDC0461402002070650000D8
S1133F600C4B800070B5C4580B4B0025C058D423AB
S1133F7002005B05083213431D602A00074900F064
S1133F805AFEE37CAB4203D020002030FEF791FEC2
S1133F90657470BD14020020706500001B000200EF
S1133FA0F8B52B4A83009C580600227C002A02D1D3
S1133FB0627C002A3ED0274AD558DC232F005B05BB
S1133FC01A0008373A431268002A15D02A1D1343F1
S1133FD01B68002B10D0A368002B0DD023681A781F
S1133FE00133EA602360A368013BA360A368002B4C
S1133FF002D13000FFF79AFFD4235B051F433A68D0
S1134000002A0DD02A1D13431B68002B08D0EB682F
S113401062681370E36A002B0DD0210030009847CA
S113402028000D4900F048FE002803D028000A4962
S113403000F046FEF8BD636801336360E368013B4A
S1134040E360E368002BEBD13000FFF789FFE7E77B
S11340501402002070650000130001008422520540
S1134060024312780300D0B2002A0CD0802001331E
S1134070400503431878013843425841024B4042FB
S11340801840024BC0187047808D5B0080841E006E
S1134090020070B5074B083213431C78064B1032EC
S11340A013431D78FFF7DAFFEDB2E4B26419E04080
S11340B070BDC046000090100000101010B50D4BEC
S11340C0821D13431A780400D3B2002A0FD0012BA7
S11340D007D1FFF7C3FF084B08341C432378D840AB
S11340E010BD0020022BFBD1044B1868F8E70448EC
S11340F0F6E7C046000008110000901018020020E6
S1134100006CDC020C4A811D0A4312780300D0B211
S1134110012A04D002280BD000280BD1704780223A
S11341200133520513431B78002BF7D10220F5E726
S11341300320F3E70520F1E70000081102009C23A7
S113414018325B05134380221A700022064B034386
S11341501A70064B063018430378DAB2002BFBD1F1
S1134160034B10000B607047000008130000081197
S1134170006CDC02F8B504000D0016001F00FFF708
S1134180C1FF012823D1002D25D08023621C5B05AB
S113419013431D70842302225B0523431A702200FB
S11341A0104B083213437200D2B21A7040220E4BE5
S11341B00E48234306341A7004432378012BFCD1A0
S11341C0002D0DD10A4B334100203B60F8BD02287D
S11341D0DBD1012DD9D139002000FFF7AFFFD4E79F
S11341E0044BF0E7000090100000081300000811D1
S11341F080841E0000127A0010B50A4C0300226865
S11342000120002A0CD0084A7F301A431070074856
S1134210063303431A78022AFCD1002023680B607A
S113422010BDC04618020020000008130000081149
S11342309C235B05C9010343C9B2197070479C23D1
S11342405B0503431878431E9841C0B2704794231A
S11342505B0549010343C9B21970704770B506681C
S11342600C0030002049FCF793FC1F490500300086
S1134270FCF714FD0E00E12130000901FCF788FC75
S1134280E121E08009013000FCF708FD0E003C212B
S11342903000FCF77DFC3C2120813000FCF7FEFC63
S11342A0124BA17223806E230321FF3322889D4287
S11342B00AD80F49930700D10E490123CA5CAA42C8
S11342C00CD36380A58070BD0132ED1A93B22380B4
S11342D00B405A4253416E33FF33E7E70133AD1AC3
S11342E00D2BEBD1EEE7C04680510100B207000070
S11342F09C650000746500000188114A03008A1857
S1134300002030B5812A17D85A88541E0B2C13D894
S11343109C88651E1E2D0FD8DD88172D0CD81D898D
S11343203B2D09D89B7A3B2B06D88B0705D0054B30
S11343309B5CA3424041C0B230BD034BF8E7C0468A
S11343404EF8FFFF9C6500007465000070B5134DC6
S1134350838802885B196E25FF35554344885B19B1
S113436095085B190E4D6600755B5B19920710D0BA
S11343700B600A680B4BC4885343827A00899B18EC
S1134380E122120162439B183C2242439B180B60BA
S113439070BD022CECD8013BEAE7C0464A05F5FFA4
S11343A082650000805101008023084A1B021268C4
S11343B09A4209D1A02310305B0518430368002BEF
S11343C002D10133FF3303607047C0461802002056
S11343D00100802210B5002301245205103111433D
S11343E00C600B6090214360490504601C3001435C
S11343F00B608821490501430B6084214905014371
S113440010430B60036010BD0200902314325B055F
S1134410134300221A604260103201601A60704730
S113442003680B6070470000104B820070B5D558CC
S1134430802204000E4B92051A602800FFF7C8FF83
S11344402800FFF7B1FF0B4B1F261A5D012318004C
S113445009493240095DC025314090408B40074AEC
S11344606D00505153511060136070BDAC65000075
S11344703C80845EB0650000B165000000E100E0AE
S1134480F7B50027114B8000C55808000E000197AE
S1134490FFF732FF0400B84216D001A93000FFF73D
S11344A055FF3800FEF746FE0100802000028142DD
S11344B006D0FCF76DFB01000198FCF769FB019045
S11344C028000199FFF7A0FF2000FEBDAC650000A5
S11344D0F7B50025124B8000C4580E00200001A936
S11344E00195FFF79DFF2800FEF724FE05008020BC
S11344F0000285420ED00B4B290004341C43FCF708
S113450047FB2768019C29004443B8B2FCF740FBF1
S113451024180194310001A8FFF7A0FEF7BDC0469E
S1134520AC65000000007810F0B50027184B80003F
S113453085B0C55808000E0001920397FFF7DCFE12
S11345400400B84203D10024200005B0F0BD3000BF
S113455003A9FFF7FBFE38002E68FEF7EBFD010010
S113456080200002814206D0FCF712FB0100039870
S1134570FCF70EFB0390039BB342E4D3AB608823A8
S11345801C355B051D43019B9A002A60DCE7C0468D
S1134590AC650000044B8000C25888231C325B05C4
S11345A01343890019607047AC650000054B800017
S11345B0C258882314325B0513431868431E98417C
S11345C0C0B27047AC6500006B46E0221B78D20293
S11345D01B041340024A09070B4380180360704709
S11345E044100000084B8200D258902310B50332C7
S11345F05B0513431B78002B02D000F011F910BDAA
S113460000F076F9FBE7C046B46500000B4A83006E
S113461098580B4A00219B589C22033352051A4395
S113462010B5017111709422520513431970037F60
S11346308B4202D02030FEF73CFB10BD200200204C
S1134640B4650000F7B50C0005001B4B30220021B7
S113465087002000FE58FCF73FF82800FEF7D7FD3E
S1134660FEF736FD2060300000F080FB20000021C2
S11346702030FEF717FBF31C01939023F21C5B051B
S11346801343102230001A70032100F0ADFB3000F8
S1134690002100F0CEFB094BFC50094B5A5D1F234F
S11346A01A401E3B9340074A13609823019A5B0506
S11346B0134340221A70F7BDB465000020020020A5
S11346C0B865000000E100E0F8B50D4E85000D4B23
S11346D0AF590400E85800F049FB38002030FEF7D9
S11346E0F8FA094B20001A5D1F231A401E3B934021
S11346F0064AD367FEF790FD0023AB51F8BDC046D0
S113470020020020B4650000B865000004E100E068
S11347100A4B800070B5C658094B0C00C3581500ED
S113472030001A68096800F028FB2860A37930007B
S11347306279217900F06AFB70BDC046B46500005F
S113474020020020F7B51E4A83009C5805002279F8
S11347500420002A16D11B4A9E58002903D02800A1
S113476001AAFFF7D5FF982300214020F21C5B0526
S113477013431970187027698F4204D12800FFF77A
S113478045FF0020FEBD0123237194235B05A16135
S113479033431B780720002BF4D0A368191E02D0E2
S11347A019780133A360B1712369013B2361A369C3
S11347B00133A3619C235B051A4380231370E0E754
S11347C020020020B4650000F8B5134F134C850097
S11347D02C59ED590127069E2777A2602661E360D4
S11347E06661FFF7AFFF002814D12000079920303D
S11347F0FEF7A2FA0328F8D000280BD09C2300224D
S113480003355B052B4322711A70942303205B0547
S11348101D432A70F8BDC046B46500002002002084
S113482010B51E4B8200D3581979002934D01C4985
S113483051585A69002A11D09C2252050A43127811
S1134840002A0BD08A79DC68D2B2002C03D0227003
S1134850DA680132DA605A69013A5A611A69002A3F
S113486012D0942252050A431278002A0CD09A6876
S1134870141E02D0147801329A608C711A69013ABC
S11348801A619A6901329A611A69002A04D15B6932
S1134890002B01D1FFF7BAFE10BDC0462002002054
S11348A0B4650000104A83009858104A411C9A5875
S11348B0002310B5CB779C21033249051143C36211
S11348C0037003834362836203630B70942149057D
S11348D00A431370030038331B78002B03D00121E3
S11348E00430FEF7F8F910BD20020020B465000082
S11348F070B5254B8200D358591CC97F002942D07A
S113490022495258D96A002917DB942149051143D9
S11349100978002911D0D969CCB2596A002905D087
S1134920DD6A002D02DD0C78013159629471D96A77
S11349300139D962596B01315963D96A002905DA01
S11349409421D41C4905214300240C70196B0029BF
S113495011DD9C2149051143097800290BD0927976
S1134960996AD2B2002903D00A709A6A01329A6213
S11349701A6B013A1A63DA6A002A04DC1B6B002BF7
S113498001DCFFF78FFF70BD20020020B46500003A
S1134990012903D0032909D00020704794235B0523
S11349A018430078431E9841C0B2F6E78423F6E723
S11349B0431C034849011843C9B201707047C046FB
S11349C000008812831C9420400549011843C9B291
S11349D001707047831C034889011843C9B20170F0
S11349E07047C04600000813831C8C204005C90092
S11349F01843C9B201707047F7B50400364EE31C82
S1134A001E43337808780D00DBB2072860D8FCF722
S1134A10ABF804192B0E192B2B45304B01341C43D6
S1134A20002323703378012BFCD10020FEBD012B21
S1134A30FCD12A4B01341C43402323703378042BCC
S1134A40FCD1F2E70021012801D00420023133789F
S1134A5098423FD12000FFF7ABFF0421204A13699D
S1134A608B43136130BFE0E70227B84207D1002728
S1134A700B79BB4203D020004979FFF7ABFF194BF8
S1134A8001341C4327703378154ADBB20193019B30
S1134A9001330193042311690B43E2E70421114B11
S1134AA0621C1A4311706A78A11C0B431A70002A05
S1134AB006D1AB78002B03D02000E978FFF782FF02
S1134AC0AB79002BDFD02000E979FFF78DFFDAE71F
S1134AD00120ABE70320A9E7000030100000881292
S1134AE000ED00E000001010C31C024818430078D9
S1134AF0C0B2704700003010012314308B40012AEB
S1134B0004D1802212051043036070478022D2042E
S1134B10DB431043F8E701238B40002A01D04360B4
S1134B2070478360FCE70023C222037043708370E4
S1134B30C37043718371C371037242728372C3720F
S1134B4070470000F0B5002487B00293FA230126D1
S1134B50270025009B005343039004910093019484
S1134B607642AB000593194BAA009B185988049808
S1134B70A140FCF70DF8009B009AC31A824200D9A9
S1134B80131AB3421FD2114AA900525C27000192A2
S1134B90002B02D00135322D13D10134032C01D066
S1134BA0002B0DD1029A002A00D013603F220199F4
S1134BB0BB0111400B43039ADBB2537007B0F0BD45
S1134BC000251E00CDE73300E4E7C046D2650000AF
S1134BD0942302305B0503431B78002B05D0882304
S1134BE05B05184304230370704780231B05184397
S1134BF03023F8E7942130B54905851C29430A7808
S1134C000300D4B20220012A0DD18022CF21D20484
S1134C102A43117080210333C9001A785209100005
S1134C202040224200D130BD0139002901D0C046C4
S1134C30F3E70920F7E7012310B58B400400080CC3
S1134C4004280AD8FBF790FF030E14171A008020DB
S1134C50002A03D000050443236010BDC004DB43D5
S1134C600443F9E7201D8024002A0AD02405F2E732
S1134C7020000830F7E720000C30F4E72000103063
S1134C80F1E7E404EBE70200002300B5080C042874
S1134C9008D80133FBF768FF03080A0C0E001068FC
S1134CA0C8400340180000BD5068F9E79068F7E772
S1134CB0D068F5E71069F3E710B5FFF7E4FF10BD1E
S1134CC0294A0300881800B510284BD8FBF74CFF7D
S1134CD0433C27201912094A4A4A4A2E4A4A4A4A58
S1134CE03500D020802204334005034352030020C2
S1134CF01A6000BDCC208022043340050343120314
S1134D00F5E7C8208022043340050343D202EEE7CE
S1134D10C42080220433400503439202E7E7C02005
S1134D2080220433400503435202E0E7FC20802242
S1134D300433400503431206D9E7F82080220433E4
S1134D4040050343D205D2E7BC208022043340054A
S1134D5003431202CBE7B820802204334005034307
S1134D60D201C4E70320C4E7F2FFFEFF0423C370AB
S1134D7000238370437003717047F0B5130B89B03F
S1134D800126049308230024764202939B1907907A
S1134D9005910692019302270025631C039303994E
S1134DA006987943FBF7F4FE059B834206D31B1A4E
S1134DB09E4203D91E0004900295019401357F00A0
S1134DC0092D0BD0002EEAD1019B029A1B010498F5
S1134DD01343079ADBB2537009B0F0BD072CF3D02C
S1134DE0002EF1D0039CD6E7842310B50224C21C04
S1134DF05B0513434A0022401A70902300195B0597
S1134E0018431023C9001940017010BD10B58C243B
S1134E1003306405C9000443C9B22170882192009B
S1134E2049050143D2B20A7080225205104303702F
S1134E3010BD8023012202305B0503430A401A702F
S1134E408C235B05184308238900194001707047BF
S1134E5004FEFF1F096757617270537069436F6DD9
S1134E606D6F6E53696E6B4275666665725B256421
S1134E705D203D205B3078253032585D0A00776133
S1134E8072705365744C6F77506F7765724D6F64B1
S1134E9065286B57617270506F7765724D6F6465EA
S1134EA0564C50532C2030202F2A20736C6565708B
S1134EB0207365636F6E6473203A20697272656C47
S1134EC06576616E742068657265202A2F29282909
S1134ED0206661696C65642E2E2E0A000D0A0A0A8A
S1134EE00A5B202A0909090957617270202848576A
S1134EF0207265766973696F6E204329202F2047DD
S1134F006C61757820284857207265766973696FDB
S1134F106E2042290909092A205D0A000D5B202020
S1134F200909090920202020202043616D6272694B
S1134F30646765202F2050687973636F6D706C61AE
S1134F40622020200909090920205D0A0A000D09B0
S1134F50537570706C793D25646D562C09446566F3
S1134F6061756C7420546172676574205265616464
S1134F702052656769737465723D307825303278E4
S1134F800A000D094932433D25646B622F732C09D5
S1134F905350493D25646B622F732C09554152547B
S1134FA03D2564622F732C094932432050756C6C83
S1134FB02D55703D25640A0A000D0953494D2D3EB7
S1134FC053434743363D30782530327809095254EB
S1134FD0432D3E53523D30782530327809095254DE
S1134FE0432D3E5453523D3078253032780A000D1B
S1134FF0094D43475F43313D307825303278090904
S1135000094D43475F43323D3078253032780909F2
S11350104D43475F533D3078253032780A000D09FF
S11350204D43475F53433D307825303278090909B1
S11350304D43475F4D433D30782530327809094F61
S113504053435F43523D3078253032780A000D09CE
S1135050534D435F504D50524F543D3078253032BC
S113506078090909534D435F504D4354524C3D3028
S1135070782530327809095343422D3E5343523D3B
S11350803078253032780A000D09504D435F52457F
S11350904753433D30782530327809090953494D47
S11350A05F53434743343D307825303278095254B6
S11350B0432D3E5450523D3078253032780A0A0050
S11350C00D0925647320696E205254432048616E93
S11350D0646C657220746F2D646174652C09256499
S11350E020506D6772204572726F72730A001B5BE9
S11350F0306D1B5B343B34336D1B5B313B33376D9D
S11351000D53616E69747920636865636B20666111
S1135110696C6564211B5B306D0A000D09307825CC
S1135120303278202D2D3E205B30782530327820A7
S1135130307825303278203078253032785D0A0096
S11351400D09307825303278202D2D3E20307825F9
S11351503032780A000D09307825303278202D2D30
S11351603E202D2D2D2D0A000D0A0925642F2564BE
S1135170207375636365737320726174652E0A000E
S11351800D0925642F256420737563636573736546
S113519073206D617463686564207265662E207681
S11351A0616C7565206F66203078253032782E0A60
S11351B0000D0925642062616420636F6D6D616E6A
S11351C064732E0A0A0041626F757420746F207331
S11351D077697463682043505520746F20564C508F
S11351E052206D6F64652E2E2E20007761727053ED
S11351F065744C6F77506F7765724D6F6465286B7B
S113520057617270506F7765724D6F6465564C507C
S1135210522829206661696C65642E2E2E0A00646A
S11352206F6E652E0A0D0041626F757420746F20D5
S11352304750494F5F4452565F496E697428292E7E
S11352402E2E200041626F757420746F206C6F776E
S1135250506F77657250696E537461746573282951
S11352602E2E2E2000426F6F7420646F6E652E0AFE
S113527000507265737320616E79206B65792074B8
S11352806F2073686F77206D656E752E2E2E0A0061
S11352900D53656C6563743A0A000D2D2027612750
S11352A03A207365742064656661756C7420736557
S11352B06E736F722E0A000D2D202762273A207319
S11352C0657420493243206261756420726174659B
S11352D02E0A000D2D202763273A2073657420536E
S11352E05049206261756420726174652E0A000D54
S11352F02D202764273A2073657420554152542089
S11353006261756420726174652E0A000D2D202778
S113531065273A207365742064656661756C742032
S1135320726567697374657220616464726573730E
S11353302E0A000D2D202766273A2077726974659E
S1135340206279746520746F2073656E736F722E9A
S11353500A000D2D202767273A20736574206465A1
S11353606661756C742073656E736F7220737570EB
S1135370706C7920766F6C746167652E0A000D2D50
S1135380202768273A20706F776572646F776E20E4
S1135390636F6D6D616E6420746F20616C6C20733B
S11353A0656E736F72732E0A000D2D202769273ADC
S11353B0207365742070756C6C2D757020656E613A
S11353C0626C652076616C75652E0A000D2D2027B0
S11353D06A273A2072657065617420726561642081
S11353E072656720307825303278206F6E207365BF
S11353F06E736F72202325642E0A000D2D20276BF7
S1135400273A20736C65657020756E74696C207220
S1135410657365742E0A000D2D20276C273A2073BE
S1135420656E642072657065617465642062797468
S113543065206F6E204932432E0A000D2D20276D02
S1135440273A2073656E64207265706561746564C3
S11354502062797465206F6E205350492E0A000D26
S11354602D20276E273A20656E61626C6520736576
S11354706E736F7220737570706C7920766F6C74B4
S11354806167652E0A000D2D20276F273A20646975
S11354907361626C652073656E736F7220737570CF
S11354A0706C7920766F6C746167652E0A000D2D1F
S11354B0202770273A2073776974636820746F20FB
S11354C0564C5052206D6F64652E0A000D2D202716
S11354D072273A2073776974636820746F20525579
S11354E04E206D6F64652E0A000D2D202773273A18
S11354F020706F77657220757020616C6C20736505
S11355006E736F72732E0A000D2D202774273A20B4
S113551064756D702070726F636573736F7220733E
S1135520746174652E0A000D2D202775273A2073A7
S113553065742049324320616464726573732E0A72
S1135540000D2D202778273A2064697361626C6509
S11355502053574420616E64207370696E20666F17
S11355607220313020736563732E0A000D2D2027BD
S11355707A273A2070657270657475616C6C792055
S113558064756D7020616C6C2073656E736F72202E
S1135590646174612E0A000D456E74657220736532
S11355A06C656374696F6E3E20000D0953656C650C
S11355B063743A0A000D092D2027312720414458ED
S11355C04C33363209090928307830302D2D3078A3
S11355D03244293A20312E3656202D2D20332E35B3
S11355E0562028636F6D70696C6564206F7574292B
S11355F0200A000D092D2027322720424D5830352E
S113560035616363656C20090928307830302D2DAD
S113561030783346293A20322E3456202D2D20332B
S11356202E36562028636F6D70696C6564206F7523
S11356307429200A000D092D2027332720424D58B4
S11356403035356779726F09090928307830302D83
S11356502D30783346293A20322E3456202D2D20F1
S1135660332E36562028636F6D70696C6564206F25
S1135670757429200A000D092D2027342720424D56
S1135680583035356D616709090928307834302D73
S11356902D30783532293A20322E3456202D2D20C3
S11356A0332E36562028636F6D70696C6564206FE5
S11356B0757429200A000D092D20273527204D4D0A
S11356C041383435315109090928307830302D2DCD
S11356D030783331293A20312E393556202D2D207A
S11356E0332E36560A000D092D20273627204C501C
S11356F05332354809090928307830382D2D30784F
S11357003234293A20312E3756202D2D20332E368F
S1135710562028636F6D70696C6564206F757429F9
S1135720200A000D092D20273727204D414733310A
S1135730313009090928307830302D2D3078313155
S1135740293A20312E393556202D2D20332E365628
S11357502028636F6D70696C6564206F75742920EF
S11357600A000D092D2027382720484443313030C2
S11357703009090928307830302D2D307831462908
S11357803A20332E3056202D2D20352E3056202809
S1135790636F6D70696C6564206F757429200A00ED
S11357A00D092D2027392720534937303231090973
S11357B00928307830302D2D30783046293A203180
S11357C02E3956202D2D20332E36562028636F6D0A
S11357D070696C6564206F757429200A000D092DA9
S11357E020276127204C33474432304809090928CF
S11357F0307830462D2D30783339293A20322E3204
S113580056202D2D20332E36562028636F6D706957
S11358106C6564206F757429200A000D092D2027FA
S1135820622720424D45363830090909283078412D
S1135830412D2D30784638293A20312E3656202DE8
S11358402D20332E36562028636F6D70696C656485
S1135850206F757429200A000D092D202764272044
S113586054435333343732350909092830783030FA
S11358702D2D30783144293A20322E3756202D2DC3
S113588020332E33562028636F6D70696C65642055
S11358906F757429200A000D092D202765272053D0
S11358A04934373035090909286E2F61293A2020F7
S11358B0202020202020322E3756202D2D20352E3A
S11358C035562028636F6D70696C6564206F75743C
S11358D029200A000D092D20276727204343533828
S11358E0313109090928307830302D2D3078464679
S11358F0293A20312E3856202D2D20332E3656208D
S113590028636F6D70696C6564206F757429200A53
S1135910000D092D2027682720414D47383833349E
S113592009090928307830302D2D3F293A20332EAB
S11359303356202D2D20332E33562028636F6D705F
S1135940696C6564206F757429200A000D092D2087
S1135950276A27204153373236320909092830781B
S113596030302D2D30783242293A20322E375620CD
S11359702D2D20332E36562028636F6D70696C658B
S113598064206F757429200A000D092D20276B27C8
S11359902041533732363309090928307830302D05
S11359A02D30783242293A20322E3756202D2D20A0
S11359B0332E36562028636F6D70696C6564206FD2
S11359C0757429200A000D09456E7465722073658B
S11359D06C656374696F6E3E20000D09496E7661D3
S11359E06C69642073656C656374696F6E20272528
S11359F0632720210A000D0A0953657420493243A4
S1135A002062617564207261746520696E206B6226
S1135A1070732028652E672E2C20273030303127D4
S1135A20293E20000D0A0949324320626175642031
S1135A30726174652073657420746F202564206B13
S1135A40622F73000D0A0953657420535049206274
S1135A50617564207261746520696E206B62707375
S1135A602028652E672E2C20273030303127293E00
S1135A7020000D0A09535049206261756420726147
S1135A8074653A202564206B622F73000D0A095354
S1135A9065742055415254206261756420726174AA
S1135AA06520696E206B6270732028652E672E2C2A
S1135AB020273030303127293E20000D0A09554176
S1135AC05254206261756420726174653A202564C1
S1135AD0206B622F73000D0A09456E7465722032C3
S1135AE02D6E7962626C6520726567697374657284
S1135AF02068657820616464726573732028652E5C
S1135B00672E2C2027336527293E20000D0A0945DE
S1135B106E7465726564205B3078253032785D2E52
S1135B200A0A000D0A09456E746572204932432041
S1135B30616464722E2028652E672E2C202730661F
S1135B402729206F72202739392720666F72205346
S1135B505049203E20000D0A09456E746572656443
S1135B60205B3078253032785D2E0A000D0A094515
S1135B706E74657220686578206279746520746F2C
S1135B802073656E642028652E672E2C20273066CE
S1135B9027293E20000D0A09535049207772697461
S1135BA065206661696C65642E204144584C333627
S1135BB0322044697361626C6564000D0A094932DC
S1135BC043207772697465206661696C65642C2072
S1135BD06572726F722025642E0A0A000D0A094F3D
S1135BE0766572726964652073656E736F72207373
S1135BF07570706C7920766F6C7461676520696E5E
S1135C00206D562028652E672E2C20273138303001
S1135C1027293E20000D0A094F7665727269646572
S1135C202073656E736F7220737570706C79207653
S1135C306F6C746167652073657420746F202564CC
S1135C40206D56000D0A094E4F54453A204669729C
S1135C50737420706F7765722073656E736F7273DF
S1135C6020616E6420656E61626C65204932430A6E
S1135C700A000D09506F776572646F776E20636F49
S1135C806D6D616E64206162616E646F6E65642E19
S1135C9020424D583035352064697361626C656407
S1135CA00A000D09506F776572646F776E20636F19
S1135CB06D6D616E64206162616E646F6E65642EE9
S1135CC0204C3347443230482064697361626C6508
S1135CD0640A000D09506F776572646F776E2063F4
S1135CE06F6D6D616E64206162616E646F6E656478
S1135CF02E20544353333437323520646973616240
S1135D006C65640A000D0A094175746F2D696E6330
S1135D1072656D656E742066726F6D206261736565
S1135D202061646472657373203078253032783F63
S1135D30205B273027207C202731275D3E20000D63
S1135D400A094368756E6B2072656164732070651F
S1135D507220616464726573732028652E672E2C2B
S1135D6020273127293E20000D0A094368617474F5
S1135D70793F205B273027207C202731275D3E2078
S1135D80000D0A09496E7465722D6F706572617435
S1135D90696F6E207370696E2064656C6179206927
S1135DA06E206D696C6C697365636F6E6473202813
S1135DB0652E672E2C20273030303027293E2000D6
S1135DC00D0A0952657065746974696F6E73207089
S1135DD0657220616464726573732028652E672E72
S1135DE02C20273030303027293E20000D0A094D61
S1135DF06178696D756D20766F6C74616765206676
S1135E006F72206164617074697665207375707057
S1135E106C792028652E672E2C20273030303027CF
S1135E20293E20000D0A095265666572656E636538
S1135E30206279746520666F7220636F6D70617281
S1135E4069736F6E732028652E672E2C20273365A7
S1135E5027293E20000D0A09526570656174696E38
S1135E6067206465762564204020307825303278B8
S1135E702C20726570733D25642C2070756C6C3D0C
S1135E8025642C2064656C61793D25646D733A0A40
S1135E900A000D0A4D4D4138343531513A0A0D008E
S1135EA00D0A0A424D45363830205265616420415E
S1135EB0626F727465642E2044657669636520445C
S1135EC0697361626C6564203A28000D0A09424DC9
S1135ED058303535616363656C20526561642041D7
S1135EE0626F727465642E2044657669636520442C
S1135EF0697361626C6564203A2820000D0A0953B5
S1135F006C656570696E6720756E74696C20737951
S1135F107374656D2072657365742E2E2E0A000DE0
S1135F200A094279746520746F2073656E642028B1
S1135F30652E672E2C2027463027293E20000D0A87
S1135F400952657065746974696F6E732028652ED3
S1135F50672E2C20273030303027293E20000D0AB0
S1135F600953656E64696E672025642072657065E7
S1135F70746974696F6E73206F66205B30782530A6
S1135F8032785D206F6E204932432C2073656E7326
S1135F906F7220737570706C7920766F6C746167A2
S1135FA0653D25646D560A0A000D0A0953656E6441
S1135FB0696E672025642072657065746974696F01
S1135FC06E73206F66205B3078253032785D206FE9
S1135FD06E205350492C2073656E736F7220737555
S1135FE070706C7920766F6C746167653D25646DA3
S1135FF0560A0A00776172705365744C6F77506F5C
S11360007765724D6F6465286B57617270506F7756
S113601065724D6F6465564C50522C2030202F2AE7
